{
  "_format": "hh-sol-artifact-1",
  "contractName": "SlotMachine",
  "sourceName": "contracts/slotMachine.sol",
  "abi": [
    {
      "inputs": [
        {
          "internalType": "address",
          "name": "tokenAddress",
          "type": "address"
        }
      ],
      "stateMutability": "nonpayable",
      "type": "constructor"
    },
    {
      "inputs": [
        {
          "internalType": "address",
          "name": "owner",
          "type": "address"
        }
      ],
      "name": "OwnableInvalidOwner",
      "type": "error"
    },
    {
      "inputs": [
        {
          "internalType": "address",
          "name": "account",
          "type": "address"
        }
      ],
      "name": "OwnableUnauthorizedAccount",
      "type": "error"
    },
    {
      "anonymous": false,
      "inputs": [
        {
          "indexed": true,
          "internalType": "address",
          "name": "player",
          "type": "address"
        },
        {
          "indexed": false,
          "internalType": "uint32[]",
          "name": "seeds",
          "type": "uint32[]"
        }
      ],
      "name": "FreeSeedsGranted",
      "type": "event"
    },
    {
      "anonymous": false,
      "inputs": [
        {
          "indexed": true,
          "internalType": "address",
          "name": "previousOwner",
          "type": "address"
        },
        {
          "indexed": true,
          "internalType": "address",
          "name": "newOwner",
          "type": "address"
        }
      ],
      "name": "OwnershipTransferred",
      "type": "event"
    },
    {
      "anonymous": false,
      "inputs": [
        {
          "indexed": true,
          "internalType": "address",
          "name": "player",
          "type": "address"
        },
        {
          "indexed": false,
          "internalType": "uint256",
          "name": "amount",
          "type": "uint256"
        }
      ],
      "name": "TokensClaimed",
      "type": "event"
    },
    {
      "inputs": [
        {
          "internalType": "uint256",
          "name": "count",
          "type": "uint256"
        }
      ],
      "name": "buyPlays",
      "outputs": [],
      "stateMutability": "payable",
      "type": "function"
    },
    {
      "inputs": [],
      "name": "claimFreeSpins",
      "outputs": [],
      "stateMutability": "nonpayable",
      "type": "function"
    },
    {
      "inputs": [
        {
          "internalType": "uint256",
          "name": "rawSeed",
          "type": "uint256"
        }
      ],
      "name": "claimTokensBySeed",
      "outputs": [],
      "stateMutability": "nonpayable",
      "type": "function"
    },
    {
      "inputs": [
        {
          "internalType": "address",
          "name": "_playerForView",
          "type": "address"
        },
        {
          "internalType": "uint256",
          "name": "rawLastUsedSeedValue",
          "type": "uint256"
        }
      ],
      "name": "getCalculatedTotalScoreForClaim",
      "outputs": [
        {
          "internalType": "uint256",
          "name": "calculatedScore",
          "type": "uint256"
        },
        {
          "internalType": "uint256",
          "name": "seedsConsideredCount",
          "type": "uint256"
        },
        {
          "internalType": "uint256",
          "name": "lastSeedUserIndexFound",
          "type": "uint256"
        }
      ],
      "stateMutability": "view",
      "type": "function"
    },
    {
      "inputs": [
        {
          "internalType": "uint32",
          "name": "seed",
          "type": "uint32"
        }
      ],
      "name": "getScoreForSeed",
      "outputs": [
        {
          "internalType": "uint256",
          "name": "score",
          "type": "uint256"
        }
      ],
      "stateMutability": "pure",
      "type": "function"
    },
    {
      "inputs": [
        {
          "internalType": "address",
          "name": "_user",
          "type": "address"
        }
      ],
      "name": "getUnclaimedUserSeeds",
      "outputs": [
        {
          "internalType": "address",
          "name": "player",
          "type": "address"
        },
        {
          "internalType": "uint32[]",
          "name": "unclaimedSeeds",
          "type": "uint32[]"
        }
      ],
      "stateMutability": "view",
      "type": "function"
    },
    {
      "inputs": [
        {
          "internalType": "address[]",
          "name": "_players",
          "type": "address[]"
        },
        {
          "internalType": "uint32",
          "name": "_countPerPlayer",
          "type": "uint32"
        }
      ],
      "name": "grantFreeSpinsBatch",
      "outputs": [],
      "stateMutability": "nonpayable",
      "type": "function"
    },
    {
      "inputs": [
        {
          "internalType": "address",
          "name": "",
          "type": "address"
        }
      ],
      "name": "lastClaimedSeed",
      "outputs": [
        {
          "internalType": "uint32",
          "name": "",
          "type": "uint32"
        }
      ],
      "stateMutability": "view",
      "type": "function"
    },
    {
      "inputs": [
        {
          "internalType": "address",
          "name": "",
          "type": "address"
        }
      ],
      "name": "lastClaimedSeedIndex",
      "outputs": [
        {
          "internalType": "uint256",
          "name": "",
          "type": "uint256"
        }
      ],
      "stateMutability": "view",
      "type": "function"
    },
    {
      "inputs": [
        {
          "internalType": "address",
          "name": "",
          "type": "address"
        }
      ],
      "name": "lastClaimedTimestamp",
      "outputs": [
        {
          "internalType": "uint256",
          "name": "",
          "type": "uint256"
        }
      ],
      "stateMutability": "view",
      "type": "function"
    },
    {
      "inputs": [],
      "name": "owner",
      "outputs": [
        {
          "internalType": "address",
          "name": "",
          "type": "address"
        }
      ],
      "stateMutability": "view",
      "type": "function"
    },
    {
      "inputs": [],
      "name": "renounceOwnership",
      "outputs": [],
      "stateMutability": "nonpayable",
      "type": "function"
    },
    {
      "inputs": [],
      "name": "token",
      "outputs": [
        {
          "internalType": "contract tMONG",
          "name": "",
          "type": "address"
        }
      ],
      "stateMutability": "view",
      "type": "function"
    },
    {
      "inputs": [
        {
          "internalType": "address",
          "name": "newOwner",
          "type": "address"
        }
      ],
      "name": "transferOwnership",
      "outputs": [],
      "stateMutability": "nonpayable",
      "type": "function"
    },
    {
      "inputs": [],
      "name": "withdrawAll",
      "outputs": [],
      "stateMutability": "nonpayable",
      "type": "function"
    },
    {
      "inputs": [],
      "name": "withdrawHalf",
      "outputs": [],
      "stateMutability": "nonpayable",
      "type": "function"
    },
    {
      "stateMutability": "payable",
      "type": "receive"
    }
  ],
  "bytecode": "0x60806040523480156200001157600080fd5b50604051620030b9380380620030b9833981810160405281019062000037919062000235565b33600073ffffffffffffffffffffffffffffffffffffffff168173ffffffffffffffffffffffffffffffffffffffff1603620000ad5760006040517f1e4fbdf7000000000000000000000000000000000000000000000000000000008152600401620000a4919062000278565b60405180910390fd5b620000be816200010760201b60201c565b5080600160006101000a81548173ffffffffffffffffffffffffffffffffffffffff021916908373ffffffffffffffffffffffffffffffffffffffff1602179055505062000295565b60008060009054906101000a900473ffffffffffffffffffffffffffffffffffffffff169050816000806101000a81548173ffffffffffffffffffffffffffffffffffffffff021916908373ffffffffffffffffffffffffffffffffffffffff1602179055508173ffffffffffffffffffffffffffffffffffffffff168173ffffffffffffffffffffffffffffffffffffffff167f8be0079c531659141344cd1fd0a4f28419497f9722a3daafe3b4186f6b6457e060405160405180910390a35050565b600080fd5b600073ffffffffffffffffffffffffffffffffffffffff82169050919050565b6000620001fd82620001d0565b9050919050565b6200020f81620001f0565b81146200021b57600080fd5b50565b6000815190506200022f8162000204565b92915050565b6000602082840312156200024e576200024d620001cb565b5b60006200025e848285016200021e565b91505092915050565b6200027281620001f0565b82525050565b60006020820190506200028f600083018462000267565b92915050565b612e1480620002a56000396000f3fe6080604052600436106100f75760003560e01c806396aae6911161008a578063f2fde38b11610059578063f2fde38b14610303578063f64470761461032c578063f737a28014610355578063fc0c546a14610392576100fe565b806396aae69114610249578063ad2cb21a14610260578063b453082914610289578063d8df3c2a146102c6576100fe565b806371db08c0116100c657806371db08c0146101ad578063853828b6146101c95780638da5cb5b146101e057806393ceccff1461020b576100fe565b806302ee0efb146101035780634f5e62531461014057806370f40be514610157578063715018a614610196576100fe565b366100fe57005b600080fd5b34801561010f57600080fd5b5061012a60048036038101906101259190611e65565b6103bd565b6040516101379190611eab565b60405180910390f35b34801561014c57600080fd5b506101556103d5565b005b34801561016357600080fd5b5061017e60048036038101906101799190611ef2565b610439565b60405161018d93929190611f32565b60405180910390f35b3480156101a257600080fd5b506101ab61061a565b005b6101c760048036038101906101c29190611f69565b61062e565b005b3480156101d557600080fd5b506101de6108df565b005b3480156101ec57600080fd5b506101f5610937565b6040516102029190611fa5565b60405180910390f35b34801561021757600080fd5b50610232600480360381019061022d9190611e65565b610960565b60405161024092919061208e565b60405180910390f35b34801561025557600080fd5b5061025e610b4a565b005b34801561026c57600080fd5b506102876004803603810190610282919061214f565b610d76565b005b34801561029557600080fd5b506102b060048036038101906102ab91906121af565b6110c9565b6040516102bd9190611eab565b60405180910390f35b3480156102d257600080fd5b506102ed60048036038101906102e89190611e65565b6110db565b6040516102fa9190611eab565b60405180910390f35b34801561030f57600080fd5b5061032a60048036038101906103259190611e65565b6110f3565b005b34801561033857600080fd5b50610353600480360381019061034e9190611f69565b611179565b005b34801561036157600080fd5b5061037c60048036038101906103779190611e65565b611591565b60405161038991906121eb565b60405180910390f35b34801561039e57600080fd5b506103a76115b4565b6040516103b49190612265565b60405180910390f35b60056020528060005260406000206000915090505481565b6103dd6115da565b6103e5610937565b73ffffffffffffffffffffffffffffffffffffffff166108fc60024761040b91906122de565b9081150290604051600060405180830381858888f19350505050158015610436573d6000803e3d6000fd5b50565b600080600080841415801561045157506298967f8411155b610490576040517f08c379a00000000000000000000000000000000000000000000000000000000081526004016104879061236c565b60405180910390fd5b60008490506000600260008873ffffffffffffffffffffffffffffffffffffffff1673ffffffffffffffffffffffffffffffffffffffff1681526020019081526020016000209050600080600460008a73ffffffffffffffffffffffffffffffffffffffff1673ffffffffffffffffffffffffffffffffffffffff168152602001908152602001600020549050600083805490509050600084805490508310156106045760008390505b85805490508110156106025781806105519061238c565b92505061059586828154811061056a576105696123d4565b5b90600052602060002090600891828204019190066004029054906101000a900463ffffffff16611661565b856105a09190612403565b94508663ffffffff168682815481106105bc576105bb6123d4565b5b90600052602060002090600891828204019190066004029054906101000a900463ffffffff1663ffffffff16036105f557809250610602565b808060010191505061053a565b505b8381839850985098505050505050509250925092565b6106226115da565b61062c60006117e7565b565b6000600f82036106485767016345785d8a000090506106b5565b60328203610660576702c68af0bb14000090506106b4565b60648203610678576704db73254763000090506106b3565b6040517f08c379a00000000000000000000000000000000000000000000000000000000081526004016106aa90612483565b60405180910390fd5b5b5b8034146106f7576040517f08c379a00000000000000000000000000000000000000000000000000000000081526004016106ee906124ef565b60405180910390fd5b60008267ffffffffffffffff8111156107135761071261250f565b5b6040519080825280602002602001820160405280156107415781602001602082028036833780820191505090505b5090506000600260003373ffffffffffffffffffffffffffffffffffffffff1673ffffffffffffffffffffffffffffffffffffffff16815260200190815260200160002080549050905060005b8481101561088a576107ab3382846107a69190612403565b6118ab565b8382815181106107be576107bd6123d4565b5b602002602001019063ffffffff16908163ffffffff1681525050600260003373ffffffffffffffffffffffffffffffffffffffff1673ffffffffffffffffffffffffffffffffffffffff16815260200190815260200160002083828151811061082a576108296123d4565b5b602002602001015190806001815401808255809150506001900390600052602060002090600891828204019190066004029091909190916101000a81548163ffffffff021916908363ffffffff160217905550808060010191505061078e565b503373ffffffffffffffffffffffffffffffffffffffff167f8392e486332bc2f50581c9ae692d1e1e68233e75624ac9199e69f8785e6b7ee8836040516108d1919061253e565b60405180910390a250505050565b6108e76115da565b6108ef610937565b73ffffffffffffffffffffffffffffffffffffffff166108fc479081150290604051600060405180830381858888f19350505050158015610934573d6000803e3d6000fd5b50565b60008060009054906101000a900473ffffffffffffffffffffffffffffffffffffffff16905090565b600060608291506000600260008573ffffffffffffffffffffffffffffffffffffffff1673ffffffffffffffffffffffffffffffffffffffff16815260200190815260200160002090506000600460008673ffffffffffffffffffffffffffffffffffffffff1673ffffffffffffffffffffffffffffffffffffffff16815260200190815260200160002054905081805490508110610a4f5783600067ffffffffffffffff811115610a1557610a1461250f565b5b604051908082528060200260200182016040528015610a435781602001602082028036833780820191505090505b50935093505050610b45565b6000818380549050610a619190612560565b905060008167ffffffffffffffff811115610a7f57610a7e61250f565b5b604051908082528060200260200182016040528015610aad5781602001602082028036833780820191505090505b50905060005b82811015610b3957848185610ac89190612403565b81548110610ad957610ad86123d4565b5b90600052602060002090600891828204019190066004029054906101000a900463ffffffff16828281518110610b1257610b116123d4565b5b602002602001019063ffffffff16908163ffffffff16815250508080600101915050610ab3565b50858195509550505050505b915091565b42600560003373ffffffffffffffffffffffffffffffffffffffff1673ffffffffffffffffffffffffffffffffffffffff168152602001908152602001600020819055506000600567ffffffffffffffff811115610bab57610baa61250f565b5b604051908082528060200260200182016040528015610bd95781602001602082028036833780820191505090505b5090506000600260003373ffffffffffffffffffffffffffffffffffffffff1673ffffffffffffffffffffffffffffffffffffffff16815260200190815260200160002080549050905060005b6005811015610d2357610c44338284610c3f9190612403565b6118ab565b838281518110610c5757610c566123d4565b5b602002602001019063ffffffff16908163ffffffff1681525050600260003373ffffffffffffffffffffffffffffffffffffffff1673ffffffffffffffffffffffffffffffffffffffff168152602001908152602001600020838281518110610cc357610cc26123d4565b5b602002602001015190806001815401808255809150506001900390600052602060002090600891828204019190066004029091909190916101000a81548163ffffffff021916908363ffffffff1602179055508080600101915050610c26565b503373ffffffffffffffffffffffffffffffffffffffff167f8392e486332bc2f50581c9ae692d1e1e68233e75624ac9199e69f8785e6b7ee883604051610d6a919061253e565b60405180910390a25050565b610d7e6115da565b600083839050118015610d95575060058383905011155b610dd4576040517f08c379a0000000000000000000000000000000000000000000000000000000008152600401610dcb906125e0565b60405180910390fd5b60008163ffffffff16118015610df1575060328163ffffffff1611155b610e30576040517f08c379a0000000000000000000000000000000000000000000000000000000008152600401610e279061264c565b60405180910390fd5b60005b838390508110156110c3576000848483818110610e5357610e526123d4565b5b9050602002016020810190610e689190611e65565b9050600073ffffffffffffffffffffffffffffffffffffffff168173ffffffffffffffffffffffffffffffffffffffff1603610ed9576040517f08c379a0000000000000000000000000000000000000000000000000000000008152600401610ed0906126de565b60405180910390fd5b60008363ffffffff1667ffffffffffffffff811115610efb57610efa61250f565b5b604051908082528060200260200182016040528015610f295781602001602082028036833780820191505090505b5090506000600260008473ffffffffffffffffffffffffffffffffffffffff1673ffffffffffffffffffffffffffffffffffffffff16815260200190815260200160002080549050905060005b8563ffffffff16811015611064576000610f9b858385610f969190612403565b6118ab565b905080848381518110610fb157610fb06123d4565b5b602002602001019063ffffffff16908163ffffffff1681525050600260008673ffffffffffffffffffffffffffffffffffffffff1673ffffffffffffffffffffffffffffffffffffffff1681526020019081526020016000208190806001815401808255809150506001900390600052602060002090600891828204019190066004029091909190916101000a81548163ffffffff021916908363ffffffff160217905550508080600101915050610f76565b508273ffffffffffffffffffffffffffffffffffffffff167f8392e486332bc2f50581c9ae692d1e1e68233e75624ac9199e69f8785e6b7ee8836040516110ab919061253e565b60405180910390a25050508080600101915050610e33565b50505050565b60006110d482611661565b9050919050565b60046020528060005260406000206000915090505481565b6110fb6115da565b600073ffffffffffffffffffffffffffffffffffffffff168173ffffffffffffffffffffffffffffffffffffffff160361116d5760006040517f1e4fbdf70000000000000000000000000000000000000000000000000000000081526004016111649190611fa5565b60405180910390fd5b611176816117e7565b50565b6000811415801561118d57506298967f8111155b6111cc576040517f08c379a00000000000000000000000000000000000000000000000000000000081526004016111c39061274a565b60405180910390fd5b60008190506000600260003373ffffffffffffffffffffffffffffffffffffffff1673ffffffffffffffffffffffffffffffffffffffff1681526020019081526020016000209050600080600460003373ffffffffffffffffffffffffffffffffffffffff1673ffffffffffffffffffffffffffffffffffffffff16815260200190815260200160002054905060008380549050905060008290505b84805490508110156112f1576000858281548110611289576112886123d4565b5b90600052602060002090600891828204019190066004029054906101000a900463ffffffff1690506112ba81611661565b856112c59190612403565b94508663ffffffff168163ffffffff16036112e357819250506112f1565b508080600101915050611268565b5060008311611335576040517f08c379a000000000000000000000000000000000000000000000000000000000815260040161132c906127dc565b60405180910390fd5b8380549050811061137b576040517f08c379a000000000000000000000000000000000000000000000000000000000815260040161137290612894565b60405180910390fd5b6000670de0b6b3a764000090506000818561139691906128b4565b90508482826113a591906122de565b14806113bd57506000851480156113bc5750600081145b5b6113fc576040517f08c379a00000000000000000000000000000000000000000000000000000000081526004016113f390612968565b60405180910390fd5b86600360003373ffffffffffffffffffffffffffffffffffffffff1673ffffffffffffffffffffffffffffffffffffffff16815260200190815260200160002060006101000a81548163ffffffff021916908363ffffffff1602179055506001836114679190612403565b600460003373ffffffffffffffffffffffffffffffffffffffff1673ffffffffffffffffffffffffffffffffffffffff16815260200190815260200160002081905550600160009054906101000a900473ffffffffffffffffffffffffffffffffffffffff1673ffffffffffffffffffffffffffffffffffffffff166340c10f1933836040518363ffffffff1660e01b8152600401611507929190612988565b600060405180830381600087803b15801561152157600080fd5b505af1158015611535573d6000803e3d6000fd5b505050503373ffffffffffffffffffffffffffffffffffffffff167f896e034966eaaf1adc54acc0f257056febbd300c9e47182cf761982cf1f5e4308260405161157f9190611eab565b60405180910390a25050505050505050565b60036020528060005260406000206000915054906101000a900463ffffffff1681565b600160009054906101000a900473ffffffffffffffffffffffffffffffffffffffff1681565b6115e2611958565b73ffffffffffffffffffffffffffffffffffffffff16611600610937565b73ffffffffffffffffffffffffffffffffffffffff161461165f57611623611958565b6040517f118cdaa70000000000000000000000000000000000000000000000000000000081526004016116569190611fa5565b60405180910390fd5b565b60008060008061167085611960565b925092509250600061168184611c4d565b9050600061168e84611c4d565b9050600061169b84611c4d565b90506000965084861480156116af57508385145b156116c957826127106116c291906128b4565b96506117dc565b848614806116d657508385145b806116e057508386145b15611771576000858714611702578486146116fb57866116fd565b855b611704565b865b905060008688146117235785871461171c578661171e565b875b611725565b855b905061173082611c4d565b6103e861173d91906128b4565b98506005811061176a5761175081611c4d565b606461175c91906128b4565b896117679190612403565b98505b50506117db565b600586106117945782606461178691906128b4565b876117919190612403565b96505b600585106117b7578160646117a991906128b4565b876117b49190612403565b96505b600584106117da578060646117cc91906128b4565b876117d79190612403565b96505b5b5b505050505050919050565b60008060009054906101000a900473ffffffffffffffffffffffffffffffffffffffff169050816000806101000a81548173ffffffffffffffffffffffffffffffffffffffff021916908373ffffffffffffffffffffffffffffffffffffffff1602179055508173ffffffffffffffffffffffffffffffffffffffff168173ffffffffffffffffffffffffffffffffffffffff167f8be0079c531659141344cd1fd0a4f28419497f9722a3daafe3b4186f6b6457e060405160405180910390a35050565b6000806000905060006001436118c19190612560565b40905060005b60078160ff16101561194c5760006001600988888587466040516020016118f2959493929190612a88565b6040516020818303038152906040528051906020012060001c6119159190612ae7565b61191f9190612403565b90508060ff16600a856119329190612b18565b61193c9190612b55565b93505080806001019150506118c7565b50819250505092915050565b600033905090565b60008060006210f4478463ffffffff161015801561198757506298967f8463ffffffff1611155b6119c6576040517f08c379a00000000000000000000000000000000000000000000000000000000081526004016119bd90612bd9565b60405180910390fd5b60006119d78563ffffffff16611c9d565b90506007815114611a1d576040517f08c379a0000000000000000000000000000000000000000000000000000000008152600401611a1490612c45565b60405180910390fd5b60007f300000000000000000000000000000000000000000000000000000000000000060f81c82600181518110611a5757611a566123d4565b5b602001015160f81c60f81b60f81c611a6f9190612c65565b60ff16905060007f300000000000000000000000000000000000000000000000000000000000000060f81c83600381518110611aae57611aad6123d4565b5b602001015160f81c60f81b60f81c611ac69190612c65565b60ff16905060007f300000000000000000000000000000000000000000000000000000000000000060f81c84600581518110611b0557611b046123d4565b5b602001015160f81c60f81b60f81c611b1d9190612c65565b60ff16905060018310158015611b34575060098311155b611b73576040517f08c379a0000000000000000000000000000000000000000000000000000000008152600401611b6a90612ce6565b60405180910390fd5b60018210158015611b85575060098211155b611bc4576040517f08c379a0000000000000000000000000000000000000000000000000000000008152600401611bbb90612d52565b60405180910390fd5b60018110158015611bd6575060098111155b611c15576040517f08c379a0000000000000000000000000000000000000000000000000000000008152600401611c0c90612dbe565b60405180910390fd5b600183611c229190612560565b9650600182611c319190612560565b9550600181611c409190612560565b9450505050509193909250565b600060058203611c605760029050611c98565b60068203611c715760039050611c98565b60078203611c825760049050611c98565b60088203611c935760059050611c98565b600190505b919050565b606060008203611ce4576040518060400160405280600181526020017f30000000000000000000000000000000000000000000000000000000000000008152509050611df8565b600082905060005b60008214611d16578080611cff9061238c565b915050600a82611d0f91906122de565b9150611cec565b60008167ffffffffffffffff811115611d3257611d3161250f565b5b6040519080825280601f01601f191660200182016040528015611d645781602001600182028036833780820191505090505b5090505b60008514611df157600182611d7d9190612560565b9150600a85611d8c9190612ae7565b6030611d989190612403565b60f81b818381518110611dae57611dad6123d4565b5b60200101907effffffffffffffffffffffffffffffffffffffffffffffffffffffffffffff1916908160001a905350600a85611dea91906122de565b9450611d68565b8093505050505b919050565b600080fd5b600080fd5b600073ffffffffffffffffffffffffffffffffffffffff82169050919050565b6000611e3282611e07565b9050919050565b611e4281611e27565b8114611e4d57600080fd5b50565b600081359050611e5f81611e39565b92915050565b600060208284031215611e7b57611e7a611dfd565b5b6000611e8984828501611e50565b91505092915050565b6000819050919050565b611ea581611e92565b82525050565b6000602082019050611ec06000830184611e9c565b92915050565b611ecf81611e92565b8114611eda57600080fd5b50565b600081359050611eec81611ec6565b92915050565b60008060408385031215611f0957611f08611dfd565b5b6000611f1785828601611e50565b9250506020611f2885828601611edd565b9150509250929050565b6000606082019050611f476000830186611e9c565b611f546020830185611e9c565b611f616040830184611e9c565b949350505050565b600060208284031215611f7f57611f7e611dfd565b5b6000611f8d84828501611edd565b91505092915050565b611f9f81611e27565b82525050565b6000602082019050611fba6000830184611f96565b92915050565b600081519050919050565b600082825260208201905092915050565b6000819050602082019050919050565b600063ffffffff82169050919050565b61200581611fec565b82525050565b60006120178383611ffc565b60208301905092915050565b6000602082019050919050565b600061203b82611fc0565b6120458185611fcb565b935061205083611fdc565b8060005b83811015612081578151612068888261200b565b975061207383612023565b925050600181019050612054565b5085935050505092915050565b60006040820190506120a36000830185611f96565b81810360208301526120b58184612030565b90509392505050565b600080fd5b600080fd5b600080fd5b60008083601f8401126120e3576120e26120be565b5b8235905067ffffffffffffffff811115612100576120ff6120c3565b5b60208301915083602082028301111561211c5761211b6120c8565b5b9250929050565b61212c81611fec565b811461213757600080fd5b50565b60008135905061214981612123565b92915050565b60008060006040848603121561216857612167611dfd565b5b600084013567ffffffffffffffff81111561218657612185611e02565b5b612192868287016120cd565b935093505060206121a58682870161213a565b9150509250925092565b6000602082840312156121c5576121c4611dfd565b5b60006121d38482850161213a565b91505092915050565b6121e581611fec565b82525050565b600060208201905061220060008301846121dc565b92915050565b6000819050919050565b600061222b61222661222184611e07565b612206565b611e07565b9050919050565b600061223d82612210565b9050919050565b600061224f82612232565b9050919050565b61225f81612244565b82525050565b600060208201905061227a6000830184612256565b92915050565b7f4e487b7100000000000000000000000000000000000000000000000000000000600052601260045260246000fd5b7f4e487b7100000000000000000000000000000000000000000000000000000000600052601160045260246000fd5b60006122e982611e92565b91506122f483611e92565b92508261230457612303612280565b5b828204905092915050565b600082825260208201905092915050565b7f496e76616c6964207261774c617374557365645365656456616c756500000000600082015250565b6000612356601c8361230f565b915061236182612320565b602082019050919050565b6000602082019050818103600083015261238581612349565b9050919050565b600061239782611e92565b91507fffffffffffffffffffffffffffffffffffffffffffffffffffffffffffffffff82036123c9576123c86122af565b5b600182019050919050565b7f4e487b7100000000000000000000000000000000000000000000000000000000600052603260045260246000fd5b600061240e82611e92565b915061241983611e92565b9250828201905080821115612431576124306122af565b5b92915050565b7f496e76616c696420636f756e7420666f7220627579506c617973000000000000600082015250565b600061246d601a8361230f565b915061247882612437565b602082019050919050565b6000602082019050818103600083015261249c81612460565b9050919050565b7f496e636f7272656374207061796d656e7420666f7220627579506c6179730000600082015250565b60006124d9601e8361230f565b91506124e4826124a3565b602082019050919050565b60006020820190508181036000830152612508816124cc565b9050919050565b7f4e487b7100000000000000000000000000000000000000000000000000000000600052604160045260246000fd5b600060208201905081810360008301526125588184612030565b905092915050565b600061256b82611e92565b915061257683611e92565b925082820390508181111561258e5761258d6122af565b5b92915050565b7f42617463683a20506c6179657220636f756e74206d75737420626520312d3500600082015250565b60006125ca601f8361230f565b91506125d582612594565b602082019050919050565b600060208201905081810360008301526125f9816125bd565b9050919050565b7f42617463683a205370696e20636f756e74206d75737420626520312d35300000600082015250565b6000612636601e8361230f565b915061264182612600565b602082019050919050565b6000602082019050818103600083015261266581612629565b9050919050565b7f42617463683a20506c6179657220616464726573732063616e6e6f742062652060008201527f7a65726f00000000000000000000000000000000000000000000000000000000602082015250565b60006126c860248361230f565b91506126d38261266c565b604082019050919050565b600060208201905081810360008301526126f7816126bb565b9050919050565b7f496e76616c6964207365656420666f726d6174206f722076616c756500000000600082015250565b6000612734601c8361230f565b915061273f826126fe565b602082019050919050565b6000602082019050818103600083015261276381612727565b9050919050565b7f4e6f206e65772073636f726520746f20636c61696d20666f722074686520707260008201527f6f63657373656420736565647320696e20746869732063616c6c000000000000602082015250565b60006127c6603a8361230f565b91506127d18261276a565b604082019050919050565b600060208201905081810360008301526127f5816127b9565b9050919050565b7f50726f7669646564206c617374557365645365656456616c756546726f6d467260008201527f6f6e74656e6420776173206e6f7420666f756e64206f72206e6f7420696e207460208201527f686520636c61696d61626c652072616e6765206f6620746869732063616c6c00604082015250565b600061287e605f8361230f565b9150612889826127fc565b606082019050919050565b600060208201905081810360008301526128ad81612871565b9050919050565b60006128bf82611e92565b91506128ca83611e92565b92508282026128d881611e92565b915082820484148315176128ef576128ee6122af565b5b5092915050565b7f5061796f75742063616c63756c6174696f6e20636f6e73697374656e6379206360008201527f6865636b206661696c6564000000000000000000000000000000000000000000602082015250565b6000612952602b8361230f565b915061295d826128f6565b604082019050919050565b6000602082019050818103600083015261298181612945565b9050919050565b600060408201905061299d6000830185611f96565b6129aa6020830184611e9c565b9392505050565b60008160601b9050919050565b60006129c9826129b1565b9050919050565b60006129db826129be565b9050919050565b6129f36129ee82611e27565b6129d0565b82525050565b6000819050919050565b612a14612a0f82611e92565b6129f9565b82525050565b600060ff82169050919050565b60008160f81b9050919050565b6000612a3f82612a27565b9050919050565b612a57612a5282612a1a565b612a34565b82525050565b6000819050919050565b6000819050919050565b612a82612a7d82612a5d565b612a67565b82525050565b6000612a9482886129e2565b601482019150612aa48287612a03565b602082019150612ab48286612a46565b600182019150612ac48285612a71565b602082019150612ad48284612a03565b6020820191508190509695505050505050565b6000612af282611e92565b9150612afd83611e92565b925082612b0d57612b0c612280565b5b828206905092915050565b6000612b2382611fec565b9150612b2e83611fec565b9250828202612b3c81611fec565b9150808214612b4e57612b4d6122af565b5b5092915050565b6000612b6082611fec565b9150612b6b83611fec565b9250828201905063ffffffff811115612b8757612b866122af565b5b92915050565b7f53656564206f7574206f6620372d64696769742072616e676500000000000000600082015250565b6000612bc360198361230f565b9150612bce82612b8d565b602082019050919050565b60006020820190508181036000830152612bf281612bb6565b9050919050565b7f53656564206d7573742062652037206469676974730000000000000000000000600082015250565b6000612c2f60158361230f565b9150612c3a82612bf9565b602082019050919050565b60006020820190508181036000830152612c5e81612c22565b9050919050565b6000612c7082612a1a565b9150612c7b83612a1a565b9250828203905060ff811115612c9457612c936122af565b5b92915050565b7f496e76616c6964207365636f6e642064696769742076616c7565000000000000600082015250565b6000612cd0601a8361230f565b9150612cdb82612c9a565b602082019050919050565b60006020820190508181036000830152612cff81612cc3565b9050919050565b7f496e76616c696420666f757274682064696769742076616c7565000000000000600082015250565b6000612d3c601a8361230f565b9150612d4782612d06565b602082019050919050565b60006020820190508181036000830152612d6b81612d2f565b9050919050565b7f496e76616c69642073697874682064696769742076616c756500000000000000600082015250565b6000612da860198361230f565b9150612db382612d72565b602082019050919050565b60006020820190508181036000830152612dd781612d9b565b905091905056fea26469706673582212200fc840ba53b3df66965a287dc06fa55bec2380c7bc8be1fe19b278a7c9e5e00064736f6c63430008160033",
  "linkReferences": {},
  "deployedLinkReferences": {}
}