{
  "_format": "hh-sol-artifact-1",
  "contractName": "SlotMachine",
  "sourceName": "contracts/slotMachine.sol",
  "abi": [
    {
      "inputs": [
        {
          "internalType": "address",
          "name": "tokenAddress",
          "type": "address"
        }
      ],
      "stateMutability": "nonpayable",
      "type": "constructor"
    },
    {
      "inputs": [
        {
          "internalType": "address",
          "name": "owner",
          "type": "address"
        }
      ],
      "name": "OwnableInvalidOwner",
      "type": "error"
    },
    {
      "inputs": [
        {
          "internalType": "address",
          "name": "account",
          "type": "address"
        }
      ],
      "name": "OwnableUnauthorizedAccount",
      "type": "error"
    },
    {
      "anonymous": false,
      "inputs": [
        {
          "indexed": true,
          "internalType": "address",
          "name": "player",
          "type": "address"
        },
        {
          "indexed": false,
          "internalType": "uint32[]",
          "name": "seeds",
          "type": "uint32[]"
        }
      ],
      "name": "FreeSeedsGranted",
      "type": "event"
    },
    {
      "anonymous": false,
      "inputs": [
        {
          "indexed": true,
          "internalType": "address",
          "name": "previousOwner",
          "type": "address"
        },
        {
          "indexed": true,
          "internalType": "address",
          "name": "newOwner",
          "type": "address"
        }
      ],
      "name": "OwnershipTransferred",
      "type": "event"
    },
    {
      "anonymous": false,
      "inputs": [
        {
          "indexed": true,
          "internalType": "address",
          "name": "player",
          "type": "address"
        },
        {
          "indexed": false,
          "internalType": "uint256",
          "name": "amount",
          "type": "uint256"
        }
      ],
      "name": "TokensClaimed",
      "type": "event"
    },
    {
      "inputs": [
        {
          "internalType": "uint256",
          "name": "count",
          "type": "uint256"
        }
      ],
      "name": "buyPlays",
      "outputs": [],
      "stateMutability": "payable",
      "type": "function"
    },
    {
      "inputs": [],
      "name": "claimFreeSpins",
      "outputs": [],
      "stateMutability": "nonpayable",
      "type": "function"
    },
    {
      "inputs": [
        {
          "internalType": "uint256",
          "name": "rawSeed",
          "type": "uint256"
        }
      ],
      "name": "claimTokensBySeed",
      "outputs": [],
      "stateMutability": "nonpayable",
      "type": "function"
    },
    {
      "inputs": [
        {
          "internalType": "address",
          "name": "_playerForView",
          "type": "address"
        },
        {
          "internalType": "uint256",
          "name": "rawLastUsedSeedValue",
          "type": "uint256"
        }
      ],
      "name": "getCalculatedTotalScoreForClaim",
      "outputs": [
        {
          "internalType": "uint256",
          "name": "calculatedScore",
          "type": "uint256"
        },
        {
          "internalType": "uint256",
          "name": "seedsConsideredCount",
          "type": "uint256"
        },
        {
          "internalType": "uint256",
          "name": "lastSeedUserIndexFound",
          "type": "uint256"
        }
      ],
      "stateMutability": "view",
      "type": "function"
    },
    {
      "inputs": [
        {
          "internalType": "uint32",
          "name": "seed",
          "type": "uint32"
        }
      ],
      "name": "getScoreForSeed",
      "outputs": [
        {
          "internalType": "uint256",
          "name": "score",
          "type": "uint256"
        }
      ],
      "stateMutability": "pure",
      "type": "function"
    },
    {
      "inputs": [
        {
          "internalType": "address",
          "name": "_user",
          "type": "address"
        }
      ],
      "name": "getUnclaimedUserSeeds",
      "outputs": [
        {
          "internalType": "address",
          "name": "player",
          "type": "address"
        },
        {
          "internalType": "uint32[]",
          "name": "unclaimedSeeds",
          "type": "uint32[]"
        }
      ],
      "stateMutability": "view",
      "type": "function"
    },
    {
      "inputs": [
        {
          "internalType": "address[]",
          "name": "_players",
          "type": "address[]"
        },
        {
          "internalType": "uint32",
          "name": "_countPerPlayer",
          "type": "uint32"
        }
      ],
      "name": "grantFreeSpinsBatch",
      "outputs": [],
      "stateMutability": "nonpayable",
      "type": "function"
    },
    {
      "inputs": [
        {
          "internalType": "address",
          "name": "",
          "type": "address"
        }
      ],
      "name": "lastClaimedSeed",
      "outputs": [
        {
          "internalType": "uint32",
          "name": "",
          "type": "uint32"
        }
      ],
      "stateMutability": "view",
      "type": "function"
    },
    {
      "inputs": [
        {
          "internalType": "address",
          "name": "",
          "type": "address"
        }
      ],
      "name": "lastClaimedSeedIndex",
      "outputs": [
        {
          "internalType": "uint256",
          "name": "",
          "type": "uint256"
        }
      ],
      "stateMutability": "view",
      "type": "function"
    },
    {
      "inputs": [
        {
          "internalType": "address",
          "name": "",
          "type": "address"
        }
      ],
      "name": "lastClaimedTimestamp",
      "outputs": [
        {
          "internalType": "uint256",
          "name": "",
          "type": "uint256"
        }
      ],
      "stateMutability": "view",
      "type": "function"
    },
    {
      "inputs": [],
      "name": "owner",
      "outputs": [
        {
          "internalType": "address",
          "name": "",
          "type": "address"
        }
      ],
      "stateMutability": "view",
      "type": "function"
    },
    {
      "inputs": [],
      "name": "renounceOwnership",
      "outputs": [],
      "stateMutability": "nonpayable",
      "type": "function"
    },
    {
      "inputs": [],
      "name": "token",
      "outputs": [
        {
          "internalType": "contract tMONG",
          "name": "",
          "type": "address"
        }
      ],
      "stateMutability": "view",
      "type": "function"
    },
    {
      "inputs": [
        {
          "internalType": "address",
          "name": "newOwner",
          "type": "address"
        }
      ],
      "name": "transferOwnership",
      "outputs": [],
      "stateMutability": "nonpayable",
      "type": "function"
    },
    {
      "inputs": [],
      "name": "withdrawAll",
      "outputs": [],
      "stateMutability": "nonpayable",
      "type": "function"
    },
    {
      "inputs": [],
      "name": "withdrawHalf",
      "outputs": [],
      "stateMutability": "nonpayable",
      "type": "function"
    },
    {
      "stateMutability": "payable",
      "type": "receive"
    }
  ],
  "bytecode": "0x60806040523480156200001157600080fd5b506040516200324c3803806200324c833981810160405281019062000037919062000235565b33600073ffffffffffffffffffffffffffffffffffffffff168173ffffffffffffffffffffffffffffffffffffffff1603620000ad5760006040517f1e4fbdf7000000000000000000000000000000000000000000000000000000008152600401620000a4919062000278565b60405180910390fd5b620000be816200010760201b60201c565b5080600160006101000a81548173ffffffffffffffffffffffffffffffffffffffff021916908373ffffffffffffffffffffffffffffffffffffffff1602179055505062000295565b60008060009054906101000a900473ffffffffffffffffffffffffffffffffffffffff169050816000806101000a81548173ffffffffffffffffffffffffffffffffffffffff021916908373ffffffffffffffffffffffffffffffffffffffff1602179055508173ffffffffffffffffffffffffffffffffffffffff168173ffffffffffffffffffffffffffffffffffffffff167f8be0079c531659141344cd1fd0a4f28419497f9722a3daafe3b4186f6b6457e060405160405180910390a35050565b600080fd5b600073ffffffffffffffffffffffffffffffffffffffff82169050919050565b6000620001fd82620001d0565b9050919050565b6200020f81620001f0565b81146200021b57600080fd5b50565b6000815190506200022f8162000204565b92915050565b6000602082840312156200024e576200024d620001cb565b5b60006200025e848285016200021e565b91505092915050565b6200027281620001f0565b82525050565b60006020820190506200028f600083018462000267565b92915050565b612fa780620002a56000396000f3fe6080604052600436106100f75760003560e01c806396aae6911161008a578063f2fde38b11610059578063f2fde38b14610303578063f64470761461032c578063f737a28014610355578063fc0c546a14610392576100fe565b806396aae69114610249578063ad2cb21a14610260578063b453082914610289578063d8df3c2a146102c6576100fe565b806371db08c0116100c657806371db08c0146101ad578063853828b6146101c95780638da5cb5b146101e057806393ceccff1461020b576100fe565b806302ee0efb146101035780634f5e62531461014057806370f40be514610157578063715018a614610196576100fe565b366100fe57005b600080fd5b34801561010f57600080fd5b5061012a60048036038101906101259190611f40565b6103bd565b6040516101379190611f86565b60405180910390f35b34801561014c57600080fd5b506101556103d5565b005b34801561016357600080fd5b5061017e60048036038101906101799190611fcd565b610439565b60405161018d9392919061200d565b60405180910390f35b3480156101a257600080fd5b506101ab61061a565b005b6101c760048036038101906101c29190612044565b61062e565b005b3480156101d557600080fd5b506101de6108df565b005b3480156101ec57600080fd5b506101f5610937565b6040516102029190612080565b60405180910390f35b34801561021757600080fd5b50610232600480360381019061022d9190611f40565b610960565b604051610240929190612169565b60405180910390f35b34801561025557600080fd5b5061025e610b4a565b005b34801561026c57600080fd5b506102876004803603810190610282919061222a565b610e51565b005b34801561029557600080fd5b506102b060048036038101906102ab919061228a565b6111a4565b6040516102bd9190611f86565b60405180910390f35b3480156102d257600080fd5b506102ed60048036038101906102e89190611f40565b6111b6565b6040516102fa9190611f86565b60405180910390f35b34801561030f57600080fd5b5061032a60048036038101906103259190611f40565b6111ce565b005b34801561033857600080fd5b50610353600480360381019061034e9190612044565b611254565b005b34801561036157600080fd5b5061037c60048036038101906103779190611f40565b61166c565b60405161038991906122c6565b60405180910390f35b34801561039e57600080fd5b506103a761168f565b6040516103b49190612340565b60405180910390f35b60056020528060005260406000206000915090505481565b6103dd6116b5565b6103e5610937565b73ffffffffffffffffffffffffffffffffffffffff166108fc60024761040b91906123b9565b9081150290604051600060405180830381858888f19350505050158015610436573d6000803e3d6000fd5b50565b600080600080841415801561045157506298967f8411155b610490576040517f08c379a000000000000000000000000000000000000000000000000000000000815260040161048790612447565b60405180910390fd5b60008490506000600260008873ffffffffffffffffffffffffffffffffffffffff1673ffffffffffffffffffffffffffffffffffffffff1681526020019081526020016000209050600080600460008a73ffffffffffffffffffffffffffffffffffffffff1673ffffffffffffffffffffffffffffffffffffffff168152602001908152602001600020549050600083805490509050600084805490508310156106045760008390505b858054905081101561060257818061055190612467565b92505061059586828154811061056a576105696124af565b5b90600052602060002090600891828204019190066004029054906101000a900463ffffffff1661173c565b856105a091906124de565b94508663ffffffff168682815481106105bc576105bb6124af565b5b90600052602060002090600891828204019190066004029054906101000a900463ffffffff1663ffffffff16036105f557809250610602565b808060010191505061053a565b505b8381839850985098505050505050509250925092565b6106226116b5565b61062c60006118c2565b565b6000601e82036106485767016345785d8a000090506106b5565b60328203610660576702c68af0bb14000090506106b4565b60648203610678576704db73254763000090506106b3565b6040517f08c379a00000000000000000000000000000000000000000000000000000000081526004016106aa90612584565b60405180910390fd5b5b5b8034146106f7576040517f08c379a00000000000000000000000000000000000000000000000000000000081526004016106ee906125f0565b60405180910390fd5b60008267ffffffffffffffff81111561071357610712612610565b5b6040519080825280602002602001820160405280156107415781602001602082028036833780820191505090505b5090506000600260003373ffffffffffffffffffffffffffffffffffffffff1673ffffffffffffffffffffffffffffffffffffffff16815260200190815260200160002080549050905060005b8481101561088a576107ab3382846107a691906124de565b611986565b8382815181106107be576107bd6124af565b5b602002602001019063ffffffff16908163ffffffff1681525050600260003373ffffffffffffffffffffffffffffffffffffffff1673ffffffffffffffffffffffffffffffffffffffff16815260200190815260200160002083828151811061082a576108296124af565b5b602002602001015190806001815401808255809150506001900390600052602060002090600891828204019190066004029091909190916101000a81548163ffffffff021916908363ffffffff160217905550808060010191505061078e565b503373ffffffffffffffffffffffffffffffffffffffff167f8392e486332bc2f50581c9ae692d1e1e68233e75624ac9199e69f8785e6b7ee8836040516108d1919061263f565b60405180910390a250505050565b6108e76116b5565b6108ef610937565b73ffffffffffffffffffffffffffffffffffffffff166108fc479081150290604051600060405180830381858888f19350505050158015610934573d6000803e3d6000fd5b50565b60008060009054906101000a900473ffffffffffffffffffffffffffffffffffffffff16905090565b600060608291506000600260008573ffffffffffffffffffffffffffffffffffffffff1673ffffffffffffffffffffffffffffffffffffffff16815260200190815260200160002090506000600460008673ffffffffffffffffffffffffffffffffffffffff1673ffffffffffffffffffffffffffffffffffffffff16815260200190815260200160002054905081805490508110610a4f5783600067ffffffffffffffff811115610a1557610a14612610565b5b604051908082528060200260200182016040528015610a435781602001602082028036833780820191505090505b50935093505050610b45565b6000818380549050610a619190612661565b905060008167ffffffffffffffff811115610a7f57610a7e612610565b5b604051908082528060200260200182016040528015610aad5781602001602082028036833780820191505090505b50905060005b82811015610b3957848185610ac891906124de565b81548110610ad957610ad86124af565b5b90600052602060002090600891828204019190066004029054906101000a900463ffffffff16828281518110610b1257610b116124af565b5b602002602001019063ffffffff16908163ffffffff16815250508080600101915050610ab3565b50858195509550505050505b915091565b6000600560003373ffffffffffffffffffffffffffffffffffffffff1673ffffffffffffffffffffffffffffffffffffffff1681526020019081526020016000205414158015610be55750612a30600560003373ffffffffffffffffffffffffffffffffffffffff1673ffffffffffffffffffffffffffffffffffffffff16815260200190815260200160002054610be291906124de565b42105b15610c25576040517f08c379a0000000000000000000000000000000000000000000000000000000008152600401610c1c90612707565b60405180910390fd5b42600560003373ffffffffffffffffffffffffffffffffffffffff1673ffffffffffffffffffffffffffffffffffffffff168152602001908152602001600020819055506000600a67ffffffffffffffff811115610c8657610c85612610565b5b604051908082528060200260200182016040528015610cb45781602001602082028036833780820191505090505b5090506000600260003373ffffffffffffffffffffffffffffffffffffffff1673ffffffffffffffffffffffffffffffffffffffff16815260200190815260200160002080549050905060005b8251811015610dfe57610d1f338284610d1a91906124de565b611986565b838281518110610d3257610d316124af565b5b602002602001019063ffffffff16908163ffffffff1681525050600260003373ffffffffffffffffffffffffffffffffffffffff1673ffffffffffffffffffffffffffffffffffffffff168152602001908152602001600020838281518110610d9e57610d9d6124af565b5b602002602001015190806001815401808255809150506001900390600052602060002090600891828204019190066004029091909190916101000a81548163ffffffff021916908363ffffffff1602179055508080600101915050610d01565b503373ffffffffffffffffffffffffffffffffffffffff167f8392e486332bc2f50581c9ae692d1e1e68233e75624ac9199e69f8785e6b7ee883604051610e45919061263f565b60405180910390a25050565b610e596116b5565b600083839050118015610e70575060058383905011155b610eaf576040517f08c379a0000000000000000000000000000000000000000000000000000000008152600401610ea690612773565b60405180910390fd5b60008163ffffffff16118015610ecc575060328163ffffffff1611155b610f0b576040517f08c379a0000000000000000000000000000000000000000000000000000000008152600401610f02906127df565b60405180910390fd5b60005b8383905081101561119e576000848483818110610f2e57610f2d6124af565b5b9050602002016020810190610f439190611f40565b9050600073ffffffffffffffffffffffffffffffffffffffff168173ffffffffffffffffffffffffffffffffffffffff1603610fb4576040517f08c379a0000000000000000000000000000000000000000000000000000000008152600401610fab90612871565b60405180910390fd5b60008363ffffffff1667ffffffffffffffff811115610fd657610fd5612610565b5b6040519080825280602002602001820160405280156110045781602001602082028036833780820191505090505b5090506000600260008473ffffffffffffffffffffffffffffffffffffffff1673ffffffffffffffffffffffffffffffffffffffff16815260200190815260200160002080549050905060005b8563ffffffff1681101561113f57600061107685838561107191906124de565b611986565b90508084838151811061108c5761108b6124af565b5b602002602001019063ffffffff16908163ffffffff1681525050600260008673ffffffffffffffffffffffffffffffffffffffff1673ffffffffffffffffffffffffffffffffffffffff1681526020019081526020016000208190806001815401808255809150506001900390600052602060002090600891828204019190066004029091909190916101000a81548163ffffffff021916908363ffffffff160217905550508080600101915050611051565b508273ffffffffffffffffffffffffffffffffffffffff167f8392e486332bc2f50581c9ae692d1e1e68233e75624ac9199e69f8785e6b7ee883604051611186919061263f565b60405180910390a25050508080600101915050610f0e565b50505050565b60006111af8261173c565b9050919050565b60046020528060005260406000206000915090505481565b6111d66116b5565b600073ffffffffffffffffffffffffffffffffffffffff168173ffffffffffffffffffffffffffffffffffffffff16036112485760006040517f1e4fbdf700000000000000000000000000000000000000000000000000000000815260040161123f9190612080565b60405180910390fd5b611251816118c2565b50565b6000811415801561126857506298967f8111155b6112a7576040517f08c379a000000000000000000000000000000000000000000000000000000000815260040161129e906128dd565b60405180910390fd5b60008190506000600260003373ffffffffffffffffffffffffffffffffffffffff1673ffffffffffffffffffffffffffffffffffffffff1681526020019081526020016000209050600080600460003373ffffffffffffffffffffffffffffffffffffffff1673ffffffffffffffffffffffffffffffffffffffff16815260200190815260200160002054905060008380549050905060008290505b84805490508110156113cc576000858281548110611364576113636124af565b5b90600052602060002090600891828204019190066004029054906101000a900463ffffffff1690506113958161173c565b856113a091906124de565b94508663ffffffff168163ffffffff16036113be57819250506113cc565b508080600101915050611343565b5060008311611410576040517f08c379a00000000000000000000000000000000000000000000000000000000081526004016114079061296f565b60405180910390fd5b83805490508110611456576040517f08c379a000000000000000000000000000000000000000000000000000000000815260040161144d90612a27565b60405180910390fd5b6000670de0b6b3a76400009050600081856114719190612a47565b905084828261148091906123b9565b148061149857506000851480156114975750600081145b5b6114d7576040517f08c379a00000000000000000000000000000000000000000000000000000000081526004016114ce90612afb565b60405180910390fd5b86600360003373ffffffffffffffffffffffffffffffffffffffff1673ffffffffffffffffffffffffffffffffffffffff16815260200190815260200160002060006101000a81548163ffffffff021916908363ffffffff16021790555060018361154291906124de565b600460003373ffffffffffffffffffffffffffffffffffffffff1673ffffffffffffffffffffffffffffffffffffffff16815260200190815260200160002081905550600160009054906101000a900473ffffffffffffffffffffffffffffffffffffffff1673ffffffffffffffffffffffffffffffffffffffff166340c10f1933836040518363ffffffff1660e01b81526004016115e2929190612b1b565b600060405180830381600087803b1580156115fc57600080fd5b505af1158015611610573d6000803e3d6000fd5b505050503373ffffffffffffffffffffffffffffffffffffffff167f896e034966eaaf1adc54acc0f257056febbd300c9e47182cf761982cf1f5e4308260405161165a9190611f86565b60405180910390a25050505050505050565b60036020528060005260406000206000915054906101000a900463ffffffff1681565b600160009054906101000a900473ffffffffffffffffffffffffffffffffffffffff1681565b6116bd611a33565b73ffffffffffffffffffffffffffffffffffffffff166116db610937565b73ffffffffffffffffffffffffffffffffffffffff161461173a576116fe611a33565b6040517f118cdaa70000000000000000000000000000000000000000000000000000000081526004016117319190612080565b60405180910390fd5b565b60008060008061174b85611a3b565b925092509250600061175c84611d28565b9050600061176984611d28565b9050600061177684611d28565b905060009650848614801561178a57508385145b156117a4578261271061179d9190612a47565b96506118b7565b848614806117b157508385145b806117bb57508386145b1561184c5760008587146117dd578486146117d657866117d8565b855b6117df565b865b905060008688146117fe578587146117f757866117f9565b875b611800565b855b905061180b82611d28565b6103e86118189190612a47565b9850600581106118455761182b81611d28565b60646118379190612a47565b8961184291906124de565b98505b50506118b6565b6005861061186f578260646118619190612a47565b8761186c91906124de565b96505b60058510611892578160646118849190612a47565b8761188f91906124de565b96505b600584106118b5578060646118a79190612a47565b876118b291906124de565b96505b5b5b505050505050919050565b60008060009054906101000a900473ffffffffffffffffffffffffffffffffffffffff169050816000806101000a81548173ffffffffffffffffffffffffffffffffffffffff021916908373ffffffffffffffffffffffffffffffffffffffff1602179055508173ffffffffffffffffffffffffffffffffffffffff168173ffffffffffffffffffffffffffffffffffffffff167f8be0079c531659141344cd1fd0a4f28419497f9722a3daafe3b4186f6b6457e060405160405180910390a35050565b60008060009050600060014361199c9190612661565b40905060005b60078160ff161015611a275760006001600988888587466040516020016119cd959493929190612c1b565b6040516020818303038152906040528051906020012060001c6119f09190612c7a565b6119fa91906124de565b90508060ff16600a85611a0d9190612cab565b611a179190612ce8565b93505080806001019150506119a2565b50819250505092915050565b600033905090565b60008060006210f4478463ffffffff1610158015611a6257506298967f8463ffffffff1611155b611aa1576040517f08c379a0000000000000000000000000000000000000000000000000000000008152600401611a9890612d6c565b60405180910390fd5b6000611ab28563ffffffff16611d78565b90506007815114611af8576040517f08c379a0000000000000000000000000000000000000000000000000000000008152600401611aef90612dd8565b60405180910390fd5b60007f300000000000000000000000000000000000000000000000000000000000000060f81c82600181518110611b3257611b316124af565b5b602001015160f81c60f81b60f81c611b4a9190612df8565b60ff16905060007f300000000000000000000000000000000000000000000000000000000000000060f81c83600381518110611b8957611b886124af565b5b602001015160f81c60f81b60f81c611ba19190612df8565b60ff16905060007f300000000000000000000000000000000000000000000000000000000000000060f81c84600581518110611be057611bdf6124af565b5b602001015160f81c60f81b60f81c611bf89190612df8565b60ff16905060018310158015611c0f575060098311155b611c4e576040517f08c379a0000000000000000000000000000000000000000000000000000000008152600401611c4590612e79565b60405180910390fd5b60018210158015611c60575060098211155b611c9f576040517f08c379a0000000000000000000000000000000000000000000000000000000008152600401611c9690612ee5565b60405180910390fd5b60018110158015611cb1575060098111155b611cf0576040517f08c379a0000000000000000000000000000000000000000000000000000000008152600401611ce790612f51565b60405180910390fd5b600183611cfd9190612661565b9650600182611d0c9190612661565b9550600181611d1b9190612661565b9450505050509193909250565b600060058203611d3b5760029050611d73565b60068203611d4c5760039050611d73565b60078203611d5d5760049050611d73565b60088203611d6e5760059050611d73565b600190505b919050565b606060008203611dbf576040518060400160405280600181526020017f30000000000000000000000000000000000000000000000000000000000000008152509050611ed3565b600082905060005b60008214611df1578080611dda90612467565b915050600a82611dea91906123b9565b9150611dc7565b60008167ffffffffffffffff811115611e0d57611e0c612610565b5b6040519080825280601f01601f191660200182016040528015611e3f5781602001600182028036833780820191505090505b5090505b60008514611ecc57600182611e589190612661565b9150600a85611e679190612c7a565b6030611e7391906124de565b60f81b818381518110611e8957611e886124af565b5b60200101907effffffffffffffffffffffffffffffffffffffffffffffffffffffffffffff1916908160001a905350600a85611ec591906123b9565b9450611e43565b8093505050505b919050565b600080fd5b600080fd5b600073ffffffffffffffffffffffffffffffffffffffff82169050919050565b6000611f0d82611ee2565b9050919050565b611f1d81611f02565b8114611f2857600080fd5b50565b600081359050611f3a81611f14565b92915050565b600060208284031215611f5657611f55611ed8565b5b6000611f6484828501611f2b565b91505092915050565b6000819050919050565b611f8081611f6d565b82525050565b6000602082019050611f9b6000830184611f77565b92915050565b611faa81611f6d565b8114611fb557600080fd5b50565b600081359050611fc781611fa1565b92915050565b60008060408385031215611fe457611fe3611ed8565b5b6000611ff285828601611f2b565b925050602061200385828601611fb8565b9150509250929050565b60006060820190506120226000830186611f77565b61202f6020830185611f77565b61203c6040830184611f77565b949350505050565b60006020828403121561205a57612059611ed8565b5b600061206884828501611fb8565b91505092915050565b61207a81611f02565b82525050565b60006020820190506120956000830184612071565b92915050565b600081519050919050565b600082825260208201905092915050565b6000819050602082019050919050565b600063ffffffff82169050919050565b6120e0816120c7565b82525050565b60006120f283836120d7565b60208301905092915050565b6000602082019050919050565b60006121168261209b565b61212081856120a6565b935061212b836120b7565b8060005b8381101561215c57815161214388826120e6565b975061214e836120fe565b92505060018101905061212f565b5085935050505092915050565b600060408201905061217e6000830185612071565b8181036020830152612190818461210b565b90509392505050565b600080fd5b600080fd5b600080fd5b60008083601f8401126121be576121bd612199565b5b8235905067ffffffffffffffff8111156121db576121da61219e565b5b6020830191508360208202830111156121f7576121f66121a3565b5b9250929050565b612207816120c7565b811461221257600080fd5b50565b600081359050612224816121fe565b92915050565b60008060006040848603121561224357612242611ed8565b5b600084013567ffffffffffffffff81111561226157612260611edd565b5b61226d868287016121a8565b9350935050602061228086828701612215565b9150509250925092565b6000602082840312156122a05761229f611ed8565b5b60006122ae84828501612215565b91505092915050565b6122c0816120c7565b82525050565b60006020820190506122db60008301846122b7565b92915050565b6000819050919050565b60006123066123016122fc84611ee2565b6122e1565b611ee2565b9050919050565b6000612318826122eb565b9050919050565b600061232a8261230d565b9050919050565b61233a8161231f565b82525050565b60006020820190506123556000830184612331565b92915050565b7f4e487b7100000000000000000000000000000000000000000000000000000000600052601260045260246000fd5b7f4e487b7100000000000000000000000000000000000000000000000000000000600052601160045260246000fd5b60006123c482611f6d565b91506123cf83611f6d565b9250826123df576123de61235b565b5b828204905092915050565b600082825260208201905092915050565b7f496e76616c6964207261774c617374557365645365656456616c756500000000600082015250565b6000612431601c836123ea565b915061243c826123fb565b602082019050919050565b6000602082019050818103600083015261246081612424565b9050919050565b600061247282611f6d565b91507fffffffffffffffffffffffffffffffffffffffffffffffffffffffffffffffff82036124a4576124a361238a565b5b600182019050919050565b7f4e487b7100000000000000000000000000000000000000000000000000000000600052603260045260246000fd5b60006124e982611f6d565b91506124f483611f6d565b925082820190508082111561250c5761250b61238a565b5b92915050565b7f496e76616c696420636f756e7420666f7220627579506c6179732e205375707060008201527f6f7274656420636f756e74733a2033302c2035302c203130302e000000000000602082015250565b600061256e603a836123ea565b915061257982612512565b604082019050919050565b6000602082019050818103600083015261259d81612561565b9050919050565b7f496e636f7272656374207061796d656e7420666f7220627579506c6179730000600082015250565b60006125da601e836123ea565b91506125e5826125a4565b602082019050919050565b60006020820190508181036000830152612609816125cd565b9050919050565b7f4e487b7100000000000000000000000000000000000000000000000000000000600052604160045260246000fd5b60006020820190508181036000830152612659818461210b565b905092915050565b600061266c82611f6d565b915061267783611f6d565b925082820390508181111561268f5761268e61238a565b5b92915050565b7f46726565207370696e732063616e206f6e6c7920626520636c61696d6564206f60008201527f6e636520706572203320686f7572732e00000000000000000000000000000000602082015250565b60006126f16030836123ea565b91506126fc82612695565b604082019050919050565b60006020820190508181036000830152612720816126e4565b9050919050565b7f42617463683a20506c6179657220636f756e74206d75737420626520312d3500600082015250565b600061275d601f836123ea565b915061276882612727565b602082019050919050565b6000602082019050818103600083015261278c81612750565b9050919050565b7f42617463683a205370696e20636f756e74206d75737420626520312d35300000600082015250565b60006127c9601e836123ea565b91506127d482612793565b602082019050919050565b600060208201905081810360008301526127f8816127bc565b9050919050565b7f42617463683a20506c6179657220616464726573732063616e6e6f742062652060008201527f7a65726f00000000000000000000000000000000000000000000000000000000602082015250565b600061285b6024836123ea565b9150612866826127ff565b604082019050919050565b6000602082019050818103600083015261288a8161284e565b9050919050565b7f496e76616c6964207365656420666f726d6174206f722076616c756500000000600082015250565b60006128c7601c836123ea565b91506128d282612891565b602082019050919050565b600060208201905081810360008301526128f6816128ba565b9050919050565b7f4e6f206e65772073636f726520746f20636c61696d20666f722074686520707260008201527f6f63657373656420736565647320696e20746869732063616c6c000000000000602082015250565b6000612959603a836123ea565b9150612964826128fd565b604082019050919050565b600060208201905081810360008301526129888161294c565b9050919050565b7f50726f7669646564206c617374557365645365656456616c756546726f6d467260008201527f6f6e74656e6420776173206e6f7420666f756e64206f72206e6f7420696e207460208201527f686520636c61696d61626c652072616e6765206f6620746869732063616c6c00604082015250565b6000612a11605f836123ea565b9150612a1c8261298f565b606082019050919050565b60006020820190508181036000830152612a4081612a04565b9050919050565b6000612a5282611f6d565b9150612a5d83611f6d565b9250828202612a6b81611f6d565b91508282048414831517612a8257612a8161238a565b5b5092915050565b7f5061796f75742063616c63756c6174696f6e20636f6e73697374656e6379206360008201527f6865636b206661696c6564000000000000000000000000000000000000000000602082015250565b6000612ae5602b836123ea565b9150612af082612a89565b604082019050919050565b60006020820190508181036000830152612b1481612ad8565b9050919050565b6000604082019050612b306000830185612071565b612b3d6020830184611f77565b9392505050565b60008160601b9050919050565b6000612b5c82612b44565b9050919050565b6000612b6e82612b51565b9050919050565b612b86612b8182611f02565b612b63565b82525050565b6000819050919050565b612ba7612ba282611f6d565b612b8c565b82525050565b600060ff82169050919050565b60008160f81b9050919050565b6000612bd282612bba565b9050919050565b612bea612be582612bad565b612bc7565b82525050565b6000819050919050565b6000819050919050565b612c15612c1082612bf0565b612bfa565b82525050565b6000612c278288612b75565b601482019150612c378287612b96565b602082019150612c478286612bd9565b600182019150612c578285612c04565b602082019150612c678284612b96565b6020820191508190509695505050505050565b6000612c8582611f6d565b9150612c9083611f6d565b925082612ca057612c9f61235b565b5b828206905092915050565b6000612cb6826120c7565b9150612cc1836120c7565b9250828202612ccf816120c7565b9150808214612ce157612ce061238a565b5b5092915050565b6000612cf3826120c7565b9150612cfe836120c7565b9250828201905063ffffffff811115612d1a57612d1961238a565b5b92915050565b7f53656564206f7574206f6620372d64696769742072616e676500000000000000600082015250565b6000612d566019836123ea565b9150612d6182612d20565b602082019050919050565b60006020820190508181036000830152612d8581612d49565b9050919050565b7f53656564206d7573742062652037206469676974730000000000000000000000600082015250565b6000612dc26015836123ea565b9150612dcd82612d8c565b602082019050919050565b60006020820190508181036000830152612df181612db5565b9050919050565b6000612e0382612bad565b9150612e0e83612bad565b9250828203905060ff811115612e2757612e2661238a565b5b92915050565b7f496e76616c6964207365636f6e642064696769742076616c7565000000000000600082015250565b6000612e63601a836123ea565b9150612e6e82612e2d565b602082019050919050565b60006020820190508181036000830152612e9281612e56565b9050919050565b7f496e76616c696420666f757274682064696769742076616c7565000000000000600082015250565b6000612ecf601a836123ea565b9150612eda82612e99565b602082019050919050565b60006020820190508181036000830152612efe81612ec2565b9050919050565b7f496e76616c69642073697874682064696769742076616c756500000000000000600082015250565b6000612f3b6019836123ea565b9150612f4682612f05565b602082019050919050565b60006020820190508181036000830152612f6a81612f2e565b905091905056fea2646970667358221220305d63df42379756a9697da36f295f8d144af790c82e1053d4f62b36ec83cd6d64736f6c63430008160033",
  "linkReferences": {},
  "deployedLinkReferences": {}
}